:020000040000FA
:100000000C9462000C948A000C948A000C948A0070
:100010000C948A000C948A000C948A000C948A0038
:100020000C948A000C948A000C948A000C948A0028
:100030000C948A000C948A000C948A000C948A0018
:100040000C94A1030C948A000C946F030C94490344
:100050000C948A000C948A000C948A000C948A00F8
:100060000C948A000C948A000000000024002700F1
:100070002A0000000000250028002B0000000000DE
:1000800023002600290004040404040404040202DA
:100090000202020203030303030301020408102007
:1000A0004080010204081020010204081020000012
:1000B0000008000201000003040700000000000027
:1000C0000000EB0311241FBECFEFD8E0DEBFCDBF91
:1000D00013E0A0E0B1E0EAE4FEE002C005900D927A
:1000E000A430B107D9F723E0A4E0B3E001C01D922A
:1000F000A83CB207E1F710E0C2E6D0E004C02197C7
:10010000FE010E941D07C136D107C9F70E940905EB
:100110000C9423070C940000AF92BF92CF92DF9211
:10012000EF92FF920F931F93CF93DF936C017B01AC
:100130008B01040F151FEB015E01AE18BF08C0173D
:10014000D10759F06991D601ED91FC910190F081B0
:10015000E02DC6010995892B79F7C501DF91CF9173
:100160001F910F91FF90EF90DF90CF90BF90AF90D5
:100170000895FC01538D448D252F30E0842F90E0AD
:10018000821B930B541710F0CF9608950197089592
:10019000FC01918D828D981761F0A28DAE0FBF2F5B
:1001A000B11D5D968C91928D9F5F9F73928F90E0B1
:1001B00008958FEF9FEF0895FC01918D828D981720
:1001C00031F0828DE80FF11D858D90E008958FEF5D
:1001D0009FEF0895FC01918D228D892F90E0805C26
:1001E0009F4F821B91098F739927089583E193E0B4
:1001F0000E94EA0021E0892B09F420E0822F089573
:1002000080E090E0892B29F00E94F60081110C9487
:1002100000000895FC01A48DA80FB92FB11DA35AA9
:10022000BF4F2C91848D90E001968F739927848F16
:10023000A689B7892C93A089B1898C918370806439
:100240008C93938D848D981306C00288F389E02DDA
:1002500080818F7D80830895EF92FF920F931F938B
:10026000CF93DF93EC0181E0888F9B8D8C8D981369
:100270001AC0E889F989808185FF15C09FB7F89475
:10028000EE89FF896083E889F989808183708064C1
:1002900080839FBF81E090E0DF91CF911F910F910C
:1002A000FF90EF900895F62E0B8D10E00F5F1F4F1B
:1002B0000F731127E02E8C8D8E110CC00FB607FC2A
:1002C000FACFE889F989808185FFF5CFCE010E94B8
:1002D0000A01F1CFEB8DEC0FFD2FF11DE35AFF4F1B
:1002E000F0829FB7F8940B8FEA89FB898081806246
:1002F000CFCFCF93DF93EC01888D8823B9F0AA8903
:10030000BB89E889F9898C9185FD03C0808186FDD0
:100310000DC00FB607FCF7CF8C9185FFF2CF80811F
:1003200085FFEDCFCE010E940A01E9CFDF91CF9189
:100330000895833081F028F4813099F08230A9F05B
:1003400008958730A9F08830C9F08430B1F48091E5
:1003500080008F7D03C0809180008F778093800024
:10036000089584B58F7784BD089584B58F7DFBCFC4
:100370008091B0008F778093B00008958091B00095
:100380008F7DF9CFCF93DF93282F30E0F901E2552D
:10039000FF4F8491F901E656FF4FD491F901EA57D6
:1003A000FF4FC491CC23A1F081110E949901EC2F41
:1003B000F0E0EE0FFF1FE458FF4FA591B491EC91D0
:1003C000ED2381E090E009F480E0DF91CF91089582
:1003D00080E090E0FACF1F93CF93DF93282F30E097
:1003E000F901E255FF4F8491F901E656FF4FD49190
:1003F000F901EA57FF4FC491CC23A9F0162F8111C0
:100400000E949901EC2FF0E0EE0FFF1FEE58FF4F16
:10041000A591B4918FB7F894EC91111108C0D095C3
:10042000DE23DC938FBFDF91CF911F910895DE2BE8
:10043000F8CFCF93DF9390E0FC01E656FF4F249175
:100440008A579F4FFC0184918823D1F090E0880F58
:10045000991FFC01E859FF4FA591B491FC01EE589A
:10046000FF4FC591D49161110EC09FB7F8948C9144
:10047000E22FE0958E238C932881E223E8839FBFAF
:10048000DF91CF9108958FB7F894EC91E22BEC9324
:100490008FBFF6CF089590E080E00895FC010190B1
:1004A0000020E9F73197AF01481B590BBC0183E1EC
:1004B00093E00C948C008EE191E00C944E02CF936B
:1004C000DF930E944E02EC010E945B028C0F9D1F85
:1004D000DF91CF910895CF92DF92EF92FF920F9329
:1004E0001F93CF93DF93CDB7DEB7A1970FB6F894E4
:1004F000DEBF0FBECDBF9C01990F440B550B19A257
:100500008E010F5D1F4F8AE0C82ED12CE12CF12CFB
:10051000CA01B901A70196010E94FB06605DF801BE
:1005200062938F01211531054105510589F790E04E
:1005300080E0309719F0CF010E944E02A1960FB6CD
:10054000F894DEBF0FBECDBFDF91CF911F910F9109
:10055000FF90EF90DF90CF900895CF93DF93EC0161
:1005600060E08E810E94EB0161E08E810E94EB01D0
:1005700060E08E810E94EB018BE891E00197F1F73A
:10058000DF91CF910895CF92DF92EF92FF920F9378
:100590001F93CF93DF936C017C0187E0E80EF11C81
:1005A000D0E0C0E0062F10E0B8010C2E02C0759517
:1005B00067950A94E2F76170F70181917F010E94CB
:1005C000EB012196C430D10579F7C601DF91CF91B7
:1005D0001F910F91FF90EF90DF90CF900C94AD02A0
:1005E000CF92DF92EF92FF920F931F93CF93DF93FF
:1005F000EC01F62E642F8C810E94EB018D818F3FE0
:1006000019F060E00E94EB010F2D10E08F8584FF50
:1006100025C06E0187E0C80ED11CF12CE12CB80179
:100620000E2C02C0759567950A94E2F76170F60189
:1006300081916F010E94EB01FFEFEF1AFF0A88E042
:10064000E816F10461F7CE01DF91CF911F910F9170
:10065000FF90EF90DF90CF900C94AD02B80184E052
:10066000759567958A95E1F7CE010E94C3026F2DBB
:10067000CE01DF91CF911F910F91FF90EF90DF900E
:10068000CF900C94C30241E00E94F00281E090E020
:1006900008951F920F920FB60F9211242F933F933C
:1006A0004F935F936F937F938F939F93AF93BF937A
:1006B000EF93FF9383E193E00E940A01FF91EF9192
:1006C000BF91AF919F918F917F916F915F914F916A
:1006D0003F912F910F900FBE0F901F9018951F9272
:1006E0000F920FB60F9211242F938F939F93EF9336
:1006F000FF93E0912303F09124038081E09129038B
:10070000F0912A0382FD1BC0908180912C038F5FA2
:100710008F7320912D03821741F0E0912C03F0E0BC
:10072000ED5EFC4F958F80932C03FF91EF919F918D
:100730008F912F910F900FBE0F901F901895808171
:10074000F4CF1F920F920FB60F9211242F933F9365
:100750008F939F93AF93BF938091090390910A0366
:10076000A0910B03B0910C033091080323E0230FF9
:100770002D3758F50196A11DB11D209308038093D4
:10078000090390930A03A0930B03B0930C03809189
:10079000040390910503A0910603B091070301960D
:1007A000A11DB11D8093040390930503A09306033C
:1007B000B0930703BF91AF919F918F913F912F917C
:1007C0000F900FBE0F901F90189526E8230F0296EA
:1007D000A11DB11DD2CFCF93DF93109216031092BB
:1007E000150388EE93E0A0E0B0E0809317039093A8
:1007F0001803A0931903B0931A0384E091E0909337
:1008000014038093130385EC90E09093200380936E
:100810001F0384EC90E0909322038093210380ECEB
:1008200090E0909324038093230381EC90E09093D5
:1008300026038093250382EC90E090932803809315
:10084000270386EC90E090932A038093290310926B
:100850002C0310922D0310922E0310922F0310924E
:10086000B3031092B20386E191E09093B1038093B9
:10087000B0038EE08093B4038FEF8093B5038FE0D5
:100880008093B60380E18093B70391E19093B8031E
:1008900092E19093B90393E19093BA031092BB0352
:1008A0001092BC031092BD031092BE031092BF03BE
:1008B00091E09093C3031092C40390E49093C50316
:1008C0008093C60380E58093C70361E08EE00E94B9
:1008D00019028091B5038F3F19F061E00E9419025F
:1008E00061E08091B6030E941902C0EBD3E09E0143
:1008F000205B33408091BF0384FD0BC084E090E017
:1009000021962817390744F461E08E810E9419026C
:10091000EECF88E090E0F4CF8BE39DE00197F1F714
:1009200060E08091B4030E94EB0160E08091B60327
:100930000E94EB018091B5038F3F19F060E00E94A7
:10094000EB016091BF0364FD45C063E080EB93E081
:100950000E94C302CBE4D6E4CE010197F1F763E035
:1009600080EB93E00E94C3022197F1F763E080EBF4
:1009700093E00E94C30283E592E00197F1F762E001
:1009800080EB93E00E94C3026091BF03606240E08D
:1009900080EB93E00E94F00284E08093C00340E08B
:1009A0006CE080EB93E00E94F00240E061E080EBBD
:1009B00093E00E94F0028BE39FE10197F1F782E060
:1009C0008093C10340E066E080EB93E0DF91CF913C
:1009D0000C94F002606240E080EB93E00E94F00231
:1009E0008BE496E40197F1F76091BF03606240E009
:1009F00080EB93E00E94F00283E592E00197F1F72B
:100A00006091BF03606240E080EB93E00E94F002DF
:100A1000BBCF789484B5826084BD84B5816084BD89
:100A200085B5826085BD85B5816085BD80916E008C
:100A3000816080936E0010928100809181008260BD
:100A400080938100809181008160809381008091FA
:100A500080008160809380008091B10084608093E9
:100A6000B1008091B00081608093B00080917A00E5
:100A7000846080937A0080917A00826080937A000B
:100A800080917A00816080937A0080917A008068FA
:100A900080937A001092C100E0912303F091240327
:100AA00082E08083E0911F03F09120031082E091A7
:100AB0002103F09122038FEC808310922B03E091AD
:100AC0002703F091280386E08083E0912503F091CD
:100AD0002603808180618083E0912503F0912603C5
:100AE000808188608083E0912503F09126038081D6
:100AF00080688083E0912503F091260380818F7DBB
:100B00008083C2E061E08C2F0E941902CF5FC93060
:100B1000C9F761E08BE00E94190261E08CE00E945D
:100B2000190260E089E00E94190260E08AE00E94F8
:100B3000190281E291E00E944E020E945B0286E46B
:100B400091E00E945F020E945B020E945B020E9491
:100B50005B0280E0E82E80E0F82E01E010E083E107
:100B600093E00E94EA00892B69F183E193E00E94FF
:100B7000C800C82F682F83E193E00E942C0185E50F
:100B800091E00E944E02C13309F042C0109312035B
:100B90000093110361E082E00E94EB018CE691E09A
:100BA0000E945F028091110390911203892B21F41E
:100BB0008CE792E00E945F020E945B021092120397
:100BC0001092110389E00E94C201EC01019709F023
:100BD000C7C080910F0390911003892B09F0C0C00A
:100BE0008BE590E00E946B0280EA92E00E945F0237
:100BF000D0931003C0930F03E114F10409F4AFCFB5
:100C00000E94F600882309F4AACF0E940000A7CF13
:100C1000C23359F4109312030093110361E082E090
:100C20000E94EB0185E891E0BBCFC33359F41093E8
:100C300012030093110361E082E00E94EB0189E955
:100C400091E0AECFC43359F4109312030093110313
:100C500060E082E00E94EB0183EB91E0A1CFC5331D
:100C600059F4109312030093110360E082E00E9494
:100C7000EB0189EC91E094CFC63359F41093120341
:100C80000093110360E082E00E94EB018AED91E0A5
:100C900087CFC73379F4109312030093110360E0F8
:100CA00086E00E94EB0161E085E00E94EB0181EFAC
:100CB00091E076CFC83379F41093120300931103B7
:100CC00060E087E00E94EB0161E088E00E94EB01B8
:100CD0008AE092E065CFC93379F410931203009350
:100CE000110360E08CE00E94EB0161E08BE00E9468
:100CF000EB018EE192E054CFCA3279F410931203E3
:100D00000093110360E085E00E94EB0160E086E063
:100D10000E94EB018BE392E043CFC03379F4109350
:100D200012030093110360E087E00E94EB0160E092
:100D300088E00E94EB0181E592E032CFC33209F0F6
:100D400031CF109312030093110360E08BE00E94F7
:100D5000EB0160E08CE00E94EB0182E692E020CFA4
:100D600089E00E94C201892B31F480910F03909198
:100D70001003019701F18AE00E94C201EC01019782
:100D800039F18AE00E94C201892B09F035CF8091A8
:100D90000D0390910E03019709F02ECF84E690E0A9
:100DA0000E946B0288EE92E00E945F0210920E0396
:100DB00010920D0321CF8AE590E00E946B0286EB32
:100DC00092E00E945F021092100310920F0314CF62
:100DD00080910D0390910E03892B99F685E690E0A2
:100DE0000E946B0280ED92E00E945F02D0930E039E
:100DF000C0930D0301CFA1E21A2EAA1BBB1BFD015C
:100E00000DC0AA1FBB1FEE1FFF1FA217B307E407E9
:100E1000F50720F0A21BB30BE40BF50B661F771F41
:100E2000881F991F1A9469F7609570958095909521
:100E30009B01AC01BD01CF010895EE0FFF1F05908E
:100E4000F491E02D0994F894FFCF000000002C01EC
:100E50008C00B9007901EA00C800DC000000000045
:100E600043038C004B024A020D0A0053696D756CF6
:100E700061736920486F6D65204175746F6D617491
:100E8000696F6E2064656E67616E2058426565000B
:100E90004C7573692044616D6179616E74690020DD
:100EA00020202020203D3D3D3D3D3D3D3D203E203C
:100EB0002020202020004C616D7075207275616EBD
:100EC000672074616D75206D656E79616C61004C91
:100ED000616D7075206B616D6172206D656E7961F9
:100EE0006C61004C616D7075206B616D6172206D7D
:100EF000616E6469206D656E79616C61004C616D35
:100F00007075207275616E672074616D75206D61FA
:100F10007469004C616D7075206B616D6172206D3C
:100F2000617469004C616D7075206B616D61722038
:100F30006D616E6469206D617469004B69706173E5
:100F4000207275616E672074616D75206D656E79B4
:100F5000616C61004B69706173206B616D6172201F
:100F60006D656E79616C61004B697061732072759B
:100F7000616E67206B656C7561726761206D656E6F
:100F800079616C61004B69706173207275616E6785
:100F90002074616D75206D617469004B69706173B7
:100FA000206B616D6172206D617469004B697061C5
:100FB00073207275616E67206B656C756172676115
:100FC000206D61746900506572696E7461682053A8
:100FD000616C61682E2053696C616B616E20756C69
:100FE000616E6769202121212000202020202D2DE5
:100FF0003E20204741532044455445435445440036
:10100000202020202D2D3E2020474153204E4F549C
:1010100020444554454354454400202020202D2D94
:101020003E2020464C414D452044455445435445BF
:101030004400202020202D2D3E2020464C414D45AF
:0E104000204E4F54204445544543544544002F
:107E0000112484B714BE81FFF0D085E080938100F7
:107E100082E08093C00088E18093C10086E0809377
:107E2000C20080E18093C4008EE0C9D0259A86E02C
:107E300020E33CEF91E0309385002093840096BBD3
:107E4000B09BFECF1D9AA8958150A9F7CC24DD24C4
:107E500088248394B5E0AB2EA1E19A2EF3E0BF2EE7
:107E6000A2D0813461F49FD0082FAFD0023811F036
:107E7000013811F484E001C083E08DD089C08234E0
:107E800011F484E103C0853419F485E0A6D080C0E4
:107E9000853579F488D0E82EFF2485D0082F10E0AE
:107EA000102F00270E291F29000F111F8ED06801E7
:107EB0006FC0863521F484E090D080E0DECF843638
:107EC00009F040C070D06FD0082F6DD080E0C81688
:107ED00080E7D80618F4F601B7BEE895C0E0D1E017
:107EE00062D089930C17E1F7F0E0CF16F0E7DF06D8
:107EF00018F0F601B7BEE89568D007B600FCFDCFD4
:107F0000A601A0E0B1E02C9130E011968C91119780
:107F100090E0982F8827822B932B1296FA010C0160
:107F200087BEE89511244E5F5F4FF1E0A038BF0790
:107F300051F7F601A7BEE89507B600FCFDCF97BE46
:107F4000E89526C08437B1F42ED02DD0F82E2BD052
:107F50003CD0F601EF2C8F010F5F1F4F84911BD097
:107F6000EA94F801C1F70894C11CD11CFA94CF0C13
:107F7000D11C0EC0853739F428D08EE10CD085E9AC
:107F80000AD08FE07ACF813511F488E018D01DD067
:107F900080E101D065CF982F8091C00085FFFCCF94
:107FA0009093C60008958091C00087FFFCCF809118
:107FB000C00084FD01C0A8958091C6000895E0E648
:107FC000F0E098E1908380830895EDDF803219F02E
:107FD00088E0F5DFFFCF84E1DECF1F93182FE3DFCA
:107FE0001150E9F7F2DF1F91089580E0E8DFEE27F6
:047FF000FF270994CA
:027FFE00040479
:00000001FF
